{
  "_format": "hh-sol-artifact-1",
  "contractName": "Transcation",
  "sourceName": "contracts/Transcation.sol",
  "abi": [
    {
      "anonymous": false,
      "inputs": [
        {
          "indexed": false,
          "internalType": "address",
          "name": "sender",
          "type": "address"
        },
        {
          "indexed": false,
          "internalType": "address",
          "name": "receiver",
          "type": "address"
        },
        {
          "indexed": false,
          "internalType": "uint256",
          "name": "amount",
          "type": "uint256"
        },
        {
          "indexed": false,
          "internalType": "string",
          "name": "message",
          "type": "string"
        },
        {
          "indexed": false,
          "internalType": "uint256",
          "name": "timestamp",
          "type": "uint256"
        },
        {
          "indexed": false,
          "internalType": "string",
          "name": "keyword",
          "type": "string"
        }
      ],
      "name": "Tranfer",
      "type": "event"
    },
    {
      "inputs": [
        {
          "internalType": "address payable",
          "name": "receiver",
          "type": "address"
        },
        {
          "internalType": "uint256",
          "name": "amount",
          "type": "uint256"
        },
        {
          "internalType": "string",
          "name": "message",
          "type": "string"
        },
        {
          "internalType": "string",
          "name": "keyword",
          "type": "string"
        }
      ],
      "name": "sendMoney",
      "outputs": [],
      "stateMutability": "nonpayable",
      "type": "function"
    }
  ],
  "bytecode": "0x608060405234801561001057600080fd5b50610499806100206000396000f3fe608060405234801561001057600080fd5b506004361061002a5760003560e01c80625f52991461002f575b600080fd5b61004960048036038101906100449190610124565b61004b565b005b7f0223fa3e881abb2c01cea41bc2ae1ca85aee5730afbab7debaf625f7c787c5c63385858542866040516100849695949392919061021d565b60405180910390a150505050565b60006100a56100a0846102b1565b61028c565b9050828152602081018484840111156100bd57600080fd5b6100c8848285610382565b509392505050565b6000813590506100df81610435565b92915050565b600082601f8301126100f657600080fd5b8135610106848260208601610092565b91505092915050565b60008135905061011e8161044c565b92915050565b6000806000806080858703121561013a57600080fd5b6000610148878288016100d0565b94505060206101598782880161010f565b935050604085013567ffffffffffffffff81111561017657600080fd5b610182878288016100e5565b925050606085013567ffffffffffffffff81111561019f57600080fd5b6101ab878288016100e5565b91505092959194509250565b6101c08161034c565b82525050565b6101cf816102fe565b82525050565b60006101e0826102e2565b6101ea81856102ed565b93506101fa818560208601610391565b61020381610424565b840191505092915050565b61021781610342565b82525050565b600060c08201905061023260008301896101c6565b61023f60208301886101b7565b61024c604083018761020e565b818103606083015261025e81866101d5565b905061026d608083018561020e565b81810360a083015261027f81846101d5565b9050979650505050505050565b60006102966102a7565b90506102a282826103c4565b919050565b6000604051905090565b600067ffffffffffffffff8211156102cc576102cb6103f5565b5b6102d582610424565b9050602081019050919050565b600081519050919050565b600082825260208201905092915050565b600061030982610322565b9050919050565b600061031b82610322565b9050919050565b600073ffffffffffffffffffffffffffffffffffffffff82169050919050565b6000819050919050565b60006103578261035e565b9050919050565b600061036982610370565b9050919050565b600061037b82610322565b9050919050565b82818337600083830152505050565b60005b838110156103af578082015181840152602081019050610394565b838111156103be576000848401525b50505050565b6103cd82610424565b810181811067ffffffffffffffff821117156103ec576103eb6103f5565b5b80604052505050565b7f4e487b7100000000000000000000000000000000000000000000000000000000600052604160045260246000fd5b6000601f19601f8301169050919050565b61043e81610310565b811461044957600080fd5b50565b61045581610342565b811461046057600080fd5b5056fea2646970667358221220f22c4521d79ad49561c3adde30290ec3c02502ad36e3979f7aaa03466a8e7b2664736f6c63430008040033",
  "linkReferences": {},
  "deployedLinkReferences": {}
}